:4000000080673030303030307e3030307e3030307e3030307e3030307e3030307d08b47e7e3030307e3030307d03437e7d03447e7e3030307e3030307e3030307e303030e5
:4000400030303030303030303030303030303030303030303030303030303030303030307e3030307e303030711062e38770ef62e33841fefb505a4e62e33855f80055f9f1
:4000800000711062e00270ef62e338627105627505627905627d057c02dc50005510163c1038a0053f108ff8500257155510003c1002a00b08283f10187509008ff27110d0
:4000c00070ef62e000711062e00270ef62e2007c06dc8fff50107f30303030303030303030303030303030303030303030303030303030303030303030303030303030307c
:4001000030303030303030303030303030303030303030303030303030303030303030303030303030303030303030303030303030303030303030303030303030303030bf
:40014000303030303030303030303030303030304f4e4c494e45004f46464c494e450046494e414c2050524f4a4543540050536f43000d0a00596f752063616e206f6e6cb2
:4001800079207479706520696e2061206d6178696d756d206f66203332206368617261637465727320617420612074696d65002f002d002e002b0029002a006028660063f6
:4001c000056500e600e700d600b001b100b200b333b433b510b600b855b900ba10bb33bc33bd00be00ff2c052dc12e40280d29012a45610069006000620067336833630030
:400200006600d100d300d000d200e1ffe200df9bde00dd00ff000070ef62000071106200026201f970ef6203e9620212711062020062030470ef6201046204007110620496
:40024000006205ff70ef6207ff620600711062060062070070ef620500620800711062087f62098070ef620b80620a007110620a00620b0070ef620900620c007110620cd9
:4002800000620d0070ef620f00620e007110620e00620f0070ef620d00621000711062100062110070ef621300621200711062120062130070ef6211006214007110621496
:4002c0000062150070ef621700621600711062160062170070ef62150070ef7f55130055147f5515807c02ec7c02177f1070ef500067500157af7c0307500167500157e610
:400300007c030770ef207f380210084f56fc00d00456fc01182070ef62e30010082839ffa01f4f48fc01a003711054fd18207509001008284f59fd610018207509008fd7eb
:4003400038fc7f7e081058125d2f082108b0041880401821e0a0122c11492e002120a032412ffe432f01802a5d2e471101b023390db0092e110156380080173920c0133ce1
:400380001220c0095638002e111080065438755a1220187e43e10443e1087f41e1fb41e1f77f71102101a00743281070ef7f4128ef70ef7f2901602b602f910e7f412bfe8f
:4003c000412ffe7f60297f5d2b7f5d2e7f5d2f7f210171103901a0064128ef800443281070ef7f082101a00643e108800441e1f7182102a00643e104800441e1fb7f303111
:4004000032333435363738394142434445460867676767210fffe7900f18210fffe090087f4b9fea5b9fe77f492b10affc60297f492f08affc5d2e7f5d2f082108b00418bb
:40044000800b5d2e4b1821a0b0034b7f50007f5d2f21e8082108b0071829014b80071821e04b5d2e7f5200a0069fbd758ff87f4f52fba0137bfb59fd5200492b10affc602c
:40048000294f77fd8feb7f4f3dfa00b0063dfb00a01d1052fc59fd28492b10affc60292007fd010ffc0017fb011ffa008fdb7f081028a00b9f72201875dff5748ff238fea5
:4004c0007f500d9f63500a9f5f7f5538005512002611005559007f511121017f511121f026110f7f51127f503802595c5200b0041080333920b01175765952003c5920bfa6
:40050000f310560000801f107576593c5920aff35200a0123920bff156000076593c5920b00455592020103d0000b0062057005b7f2050007f503802595c50007f081028fe
:40054000b00420187f903c201875dff2748fef303132333435363738394142434445460867676767210fffe7901918210fffe090127f4b9fea5b9fe77f5200a00690047552
:400580008ff87f905f0867676767210f903818210f40404090307f904b0867676767210f900918210f40404090017f082613805113600818210f29102a1360085313402189
:4005c0008f531360087f082613802e13205113600818210f29302a13600853134021af531360087f08261380511360082614f051147110600870ef2e134051136008401027
:4006000057ff2e13505113600840405d08082613c0511360084040402e13505113600840402613c051136008182108a00479bfd3202e147f51147110600870ef187f2614a4
:40064000802e147f2615805114711060085115600970ef50fa906350fa905f50039f4c5052905750039f44905f905d905b50039f3a505a904550029f32505a903d50089f8c
:4006800016505a903550019f0e505a902d50069f06500e9f02502c9efe50089efa500c9ef650039ef2505a90117f80c094d4210310fff74f03ff209ede7f900c78bffc7f25
:4006c00008193a7c010101010871105de070ef21073905d006ffe978bffe187f9024801f107c04d7203900a016107c05355a0f205f170f5316911991a4107c04ca208fe13b
:400700008fff107c04ca50017c03e350007c03b450010850755c187c04af50010850725c187c04af7c063e570550007c06ae500108506d5c187c053d500157017c06ae500f
:400740000108505f5c187c053d20710143e0207f08511008510f08510e08510d08510c08510b08510a085109085108085107085106085105085104085103085102085d0018
:400780005310471004a02e3c0000b0293c0100b024107c03bd50017c0597500057007c06ae50010850575c187c053d20550101550000802e3c0000b0293c0101b0241050c8
:4007c000007c03b450017c0597500057007c06ae50010850505c187c053d2055010055000018530218530318530418530518530618530718530818530918530a18530b1809
:40080000530c18530d18530e18530f185310187e104f38021050017c059720560100560000801a52010217530f3e0f531052010128530d51103f0d77010f00005201111062
:4008400052001900cfde10500057007c06ae50000850285c187c057920560110560000801c52010217530f3e0f5310520111100118530d51103f0d77010f0000520111219e
:4008800052001900cfdc10570050017c06ae50000850185c187c05792038fe207f1051160851175c187c046550010850725c187c04af207f7d07507e3030303030303030a8
:4008c00030303030303030303030303030303030303030303030303030303030303030303030303030303030303030303030303030303030303030303030303030303030f8
:4009000030303030303030303030303030303030303030303030303030303030303030303030303030303030303030303030303030303030303030303030303030303030b7
:400940003030303030303030303030303030303030303030303030303030303030303030303030303030303030303030303030303030303030303030303030303030303077
:400980003030303030303030303030303030303030303030303030303030303030303030303030303030303030303030303030303030303030303030303030303030303037
:020000040010ea
:020000040020da
:02000000e05cc2
:00000001ff
